{
  "_format": "hh-sol-artifact-1",
  "contractName": "USElection",
  "sourceName": "contracts/USElection.sol",
  "abi": [
    {
      "anonymous": false,
      "inputs": [
        {
          "indexed": false,
          "internalType": "uint256",
          "name": "winner",
          "type": "uint256"
        }
      ],
      "name": "LogElectionEnded",
      "type": "event"
    },
    {
      "anonymous": false,
      "inputs": [
        {
          "indexed": false,
          "internalType": "uint8",
          "name": "winner",
          "type": "uint8"
        },
        {
          "indexed": false,
          "internalType": "uint8",
          "name": "stateSeats",
          "type": "uint8"
        },
        {
          "indexed": false,
          "internalType": "string",
          "name": "state",
          "type": "string"
        }
      ],
      "name": "LogStateResult",
      "type": "event"
    },
    {
      "anonymous": false,
      "inputs": [
        {
          "indexed": true,
          "internalType": "address",
          "name": "previousOwner",
          "type": "address"
        },
        {
          "indexed": true,
          "internalType": "address",
          "name": "newOwner",
          "type": "address"
        }
      ],
      "name": "OwnershipTransferred",
      "type": "event"
    },
    {
      "inputs": [],
      "name": "BIDEN",
      "outputs": [
        {
          "internalType": "uint8",
          "name": "",
          "type": "uint8"
        }
      ],
      "stateMutability": "view",
      "type": "function"
    },
    {
      "inputs": [],
      "name": "TRUMP",
      "outputs": [
        {
          "internalType": "uint8",
          "name": "",
          "type": "uint8"
        }
      ],
      "stateMutability": "view",
      "type": "function"
    },
    {
      "inputs": [],
      "name": "currentLeader",
      "outputs": [
        {
          "internalType": "uint8",
          "name": "",
          "type": "uint8"
        }
      ],
      "stateMutability": "view",
      "type": "function"
    },
    {
      "inputs": [],
      "name": "electionEnded",
      "outputs": [
        {
          "internalType": "bool",
          "name": "",
          "type": "bool"
        }
      ],
      "stateMutability": "view",
      "type": "function"
    },
    {
      "inputs": [],
      "name": "endElection",
      "outputs": [],
      "stateMutability": "nonpayable",
      "type": "function"
    },
    {
      "inputs": [],
      "name": "owner",
      "outputs": [
        {
          "internalType": "address",
          "name": "",
          "type": "address"
        }
      ],
      "stateMutability": "view",
      "type": "function"
    },
    {
      "inputs": [],
      "name": "renounceOwnership",
      "outputs": [],
      "stateMutability": "nonpayable",
      "type": "function"
    },
    {
      "inputs": [
        {
          "internalType": "string",
          "name": "",
          "type": "string"
        }
      ],
      "name": "resultsSubmited",
      "outputs": [
        {
          "internalType": "bool",
          "name": "",
          "type": "bool"
        }
      ],
      "stateMutability": "view",
      "type": "function"
    },
    {
      "inputs": [
        {
          "internalType": "uint8",
          "name": "",
          "type": "uint8"
        }
      ],
      "name": "seats",
      "outputs": [
        {
          "internalType": "uint8",
          "name": "",
          "type": "uint8"
        }
      ],
      "stateMutability": "view",
      "type": "function"
    },
    {
      "inputs": [
        {
          "components": [
            {
              "internalType": "string",
              "name": "name",
              "type": "string"
            },
            {
              "internalType": "uint256",
              "name": "votesBiden",
              "type": "uint256"
            },
            {
              "internalType": "uint256",
              "name": "votesTrump",
              "type": "uint256"
            },
            {
              "internalType": "uint8",
              "name": "stateSeats",
              "type": "uint8"
            }
          ],
          "internalType": "struct USElection.StateResult",
          "name": "result",
          "type": "tuple"
        }
      ],
      "name": "submitStateResult",
      "outputs": [],
      "stateMutability": "nonpayable",
      "type": "function"
    },
    {
      "inputs": [
        {
          "internalType": "address",
          "name": "newOwner",
          "type": "address"
        }
      ],
      "name": "transferOwnership",
      "outputs": [],
      "stateMutability": "nonpayable",
      "type": "function"
    }
  ],
  "bytecode": "0x608060405234801561001057600080fd5b5061001a3361001f565b61006f565b600080546001600160a01b038381166001600160a01b0319831681178455604051919092169283917f8be0079c531659141344cd1fd0a4f28419497f9722a3daafe3b4186f6b6457e09190a35050565b61095d8061007e6000396000f3fe608060405234801561001057600080fd5b50600436106100a95760003560e01c8063715018a611610071578063715018a6146101405780638da5cb5b14610148578063ac4bd53a14610163578063c94ca9e31461016b578063e494a8831461017f578063f2fde38b1461019257600080fd5b80632d78d8e5146100ae578063594fff5d146100cd57806359f784681461010b57806369b36bd414610115578063713d87c51461011d575b600080fd5b6100b6600281565b60405160ff90911681526020015b60405180910390f35b6100fb6100db366004610709565b805160208183018101805160028252928201919093012091525460ff1681565b60405190151581526020016100c4565b6101136101a5565b005b6100b6600181565b6100b661012b3660046107eb565b60016020526000908152604090205460ff1681565b61011361022b565b6000546040516001600160a01b0390911681526020016100c4565b6100b6610261565b6000546100fb90600160a01b900460ff1681565b61011361018d3660046107b3565b61032b565b6101136101a03660046106db565b6105f0565b6000546001600160a01b031633146101d85760405162461bcd60e51b81526004016101cf9061081c565b60405180910390fd5b6000805460ff60a01b1916600160a01b1790557faacb23683ec1a0e9b52f9a6264edf58ad322ac62079d65ea7363a2d400f439f4610214610261565b60405160ff909116815260200160405180910390a1565b6000546001600160a01b031633146102555760405162461bcd60e51b81526004016101cf9061081c565b61025f600061068b565b565b600160208190527fd9d16d34ffb15ba3a3d852f0d403e2ce1d691fb54de27ac87cd2f993f3ec330f5460009182527fcc69885fda6bcc1a4ace058b4a62bf5e179ea78fd58a1ccd71c22cc9b688792f5460ff918216911611156102c45750600190565b60016020527fcc69885fda6bcc1a4ace058b4a62bf5e179ea78fd58a1ccd71c22cc9b688792f5460026000527fd9d16d34ffb15ba3a3d852f0d403e2ce1d691fb54de27ac87cd2f993f3ec330f5460ff918216911611156103255750600290565b50600090565b600054600160a01b900460ff16156103855760405162461bcd60e51b815260206004820152601e60248201527f54686520656c656374696f6e2068617320656e64656420616c7265616479000060448201526064016101cf565b6000546001600160a01b031633146103af5760405162461bcd60e51b81526004016101cf9061081c565b60006103c160808301606084016107eb565b60ff16116104115760405162461bcd60e51b815260206004820181905260248201527f537461746573206d7573742068617665206174206c656173742031207365617460448201526064016101cf565b8060400135816020013514156104625760405162461bcd60e51b8152602060048201526016602482015275546865726520636f756c64206e6f742062652074696560501b60448201526064016101cf565b600261046e8280610894565b60405161047c92919061080c565b9081526040519081900360200190205460ff16156104ed5760405162461bcd60e51b815260206004820152602860248201527f5468697320737461746520726573756c742077617320616c7265616479207375604482015267626d69747465642160c01b60648201526084016101cf565b60008160400135826020013511156105075750600161050b565b5060025b61051b60808301606084016107eb565b60ff80831660009081526001602052604081208054909261053e918591166108e0565b92506101000a81548160ff021916908360ff1602179055506001600283806000019061056a9190610894565b60405161057892919061080c565b908152604051908190036020019020805491151560ff199092169190911790557fa2e71fe38f1afa3762cf9d2ea7bb6a4d272a90fd6f9392f3acedd3b542046b46816105ca60808501606086016107eb565b6105d48580610894565b6040516105e49493929190610851565b60405180910390a15050565b6000546001600160a01b0316331461061a5760405162461bcd60e51b81526004016101cf9061081c565b6001600160a01b03811661067f5760405162461bcd60e51b815260206004820152602660248201527f4f776e61626c653a206e6577206f776e657220697320746865207a65726f206160448201526564647265737360d01b60648201526084016101cf565b6106888161068b565b50565b600080546001600160a01b038381166001600160a01b0319831681178455604051919092169283917f8be0079c531659141344cd1fd0a4f28419497f9722a3daafe3b4186f6b6457e09190a35050565b6000602082840312156106ec578081fd5b81356001600160a01b0381168114610702578182fd5b9392505050565b60006020828403121561071a578081fd5b813567ffffffffffffffff80821115610731578283fd5b818401915084601f830112610744578283fd5b81358181111561075657610756610911565b604051601f8201601f19908116603f0116810190838211818310171561077e5761077e610911565b81604052828152876020848701011115610796578586fd5b826020860160208301379182016020019490945295945050505050565b6000602082840312156107c4578081fd5b813567ffffffffffffffff8111156107da578182fd5b820160808185031215610702578182fd5b6000602082840312156107fc578081fd5b813560ff81168114610702578182fd5b8183823760009101908152919050565b6020808252818101527f4f776e61626c653a2063616c6c6572206973206e6f7420746865206f776e6572604082015260600190565b60ff8516815260ff8416602082015260606040820152816060820152818360808301376000818301608090810191909152601f909201601f191601019392505050565b6000808335601e198436030181126108aa578283fd5b83018035915067ffffffffffffffff8211156108c4578283fd5b6020019150368190038213156108d957600080fd5b9250929050565b600060ff821660ff84168060ff0382111561090957634e487b7160e01b83526011600452602483fd5b019392505050565b634e487b7160e01b600052604160045260246000fdfea26469706673582212202eccee290a4a110ea4b0746a44b6d90d17f574b7f80e01bdadcbb8ba70e87dfb64736f6c63430008040033",
  "linkReferences": {},
  "deployedLinkReferences": {}
}